:100000000C94E0000C9408010C9408010C94400539
:100010000C9440050C9440050C9408010C940801C4
:100020000C9408010C9408010C9408010C9408012C
:100030000C9408010C9408010C9408010C9408011C
:100040000C949E040C9408010C940E050C94E80486
:100050000C9408010C9408010C9408010C940801FC
:100060000C9408010C94080100407A10F35A00A087
:10007000724E18090010A5D4E80000E87648170071
:1000800000E40B54020000CA9A3B000000E1F505B1
:10009000000080969800000040420F000000A086FB
:1000A00001000000102700000000E803000000002D
:1000B0006400000000000A000000000001000000D1
:1000C00000002C76D888DC674F0823DFC1DFAE59EB
:1000D000E1B1B796E5E3E453C63AE651997696E87E
:1000E000E6C28426EB898C9B62ED407C6FFCEFBC02
:1000F0009C9F40F2BAA56FA5F490055A2AF75C932D
:100100006B6CF9676DC11BFCE0E40D47FEF520E662
:10011000B500D0ED902E0300943577050080841E45
:10012000080000204E0A000000C80C333333330FA0
:10013000986E12831141EF8D2114893BE65516CF3D
:10014000FEE6DB18D1844B381BF77C1D901DA4BB49
:10015000E424203284725E228100C9F124ECA1E5FE
:100160003D27000000080002010000030407000012
:10017000000000000000000000002300260029000D
:1001800000000000240027002A00000000002500D5
:1001900028002B00040404040404040402020202E4
:1001A000020203030303030301020408102040803A
:1001B0000102040810200102040810200706E409C7
:1001C00011241FBECFEFD8E0DEBFCDBF11E0A0E00D
:1001D000B1E0E4EFF1E202C005900D92AE39B10753
:1001E000D9F722E0AEE9B1E001C01D92AB3BB20706
:1001F000E1F710E0CFEDD0E004C02197FE010E94AE
:10020000EB0ECE3DD107C9F70E94E9060C94ED1024
:100210000C9400003FB7F8948091F7019091F80199
:10022000A091F901B091FA0126B5A89B05C02F3F16
:1002300019F00196A11DB11D3FBFBA2FA92F982F0C
:100240008827820F911DA11DB11DBC01CD0142E087
:10025000660F771F881F991F4A95D1F70895CF928F
:10026000DF92EF92FF920F931F93CF93DF936C0176
:100270007A018B01C0E0D0E0CE15DF0581F0D80116
:100280006D918D01D601ED91FC910190F081E02DF1
:10029000C6010995892B11F02196EECF7E01C70189
:1002A000DF91CF911F910F91FF90EF90DF90CF9052
:1002B0000895FC01538D448D252F30E0842F90E06C
:1002C000821B930B541710F0CF9608950197089551
:1002D000FC01918D828D981761F0828DDF01A80F4E
:1002E000B11D5D968C91928D9F5F9F73928F90E070
:1002F00008958FEF9FEF0895FC01918D828D9817DF
:1003000031F0828DE80FF11D858D90E008958FEF1B
:100310009FEF0895FC01918D228D892F90E0805CE4
:100320009F4F821B91098F73992708958BEF91E05E
:100330000E948A0121E0892B09F420E0822F089590
:10034000FC01848DDF01A80FB11DA35ABF4F2C9172
:10035000848D90E001968F739927848FA689B78941
:100360002C93A089B1898C91837080648C93938D38
:10037000848D981306C00288F389E02D80818F7DDB
:1003800080830895EF92FF920F931F93CF93DF9393
:10039000EC0181E0888F9B8D8C8D981305C0E889D6
:1003A000F989808185FD26C0F62E0B8D10E00F5F48
:1003B0001F4F0F731127E02E8C8DE8120CC00FB663
:1003C00007FCFACFE889F989808185FFF5CFCE0156
:1003D0000E94A001F1CF8B8DFE01E80FF11DE35AC1
:1003E000FF4FF0829FB7F8940B8FEA89FB898081D9
:1003F00080620AC09FB7F894EE89FF896083E8891C
:10040000F98980818370806480839FBF81E090E060
:10041000DF91CF911F910F91FF90EF900895CF93AF
:10042000DF93EC01888D8823C9F0EA89FB898081FC
:1004300085FD05C0A889B9898C9186FD0FC00FB6CE
:1004400007FCF5CF808185FFF2CFA889B9898C910F
:1004500085FFEDCFCE010E94A001E7CFDF91CF91C4
:10046000089580E090E0892B29F00E949601811187
:100470000C94000008952091E0013091E1012817CB
:10048000390771F49091DE018091DF01981741F0F6
:10049000E091DE01F0E0E256FE4F808190E00895A9
:1004A0008FEF9FEF089508951F93CF93DF93DC01A3
:1004B0005C968D919C915D97009739F421E030E036
:1004C00013963C932E9312973BC05196ED91FC915D
:1004D000529750962C915097322F30951FB75E96B9
:1004E0004C915E97742F727041FD6095F894408135
:1004F000772311F0422B01C043234083EC01219765
:10050000F1F748E0508160FF02C0522B01C0532335
:100510005083EC012197F1F76695415099F780815E
:10052000772319F08323808302C0282B20831FBFE9
:100530005C968D919C915D970197F1F781E090E039
:10054000DF91CF911F9108952091E0013091E10159
:100550002817390771F48091DF012091DE0190E0C6
:10056000805C9F4F821B910960E470E00E94C30E83
:10057000089580E090E008952091E0013091E1013C
:1005800028173907B9F49091DE018091DF0198179F
:1005900089F0E091DE01F0E0E256FE4F808120918B
:1005A000DE0130E02F5F3F4F2F7333272093DE01B2
:1005B00090E008958FEF9FEF0895089580E090E018
:1005C000089542E050E06EE271E08BEF91E00C9410
:1005D0002F01FC01808191810C94890FCF93DF93CF
:1005E000EC0188819981009711F00E94890F19828E
:1005F00018821D821C821B821A82DF91CF9108957E
:100600000E94D8100F931F93CF93DF93EC01888142
:100610009981009729F02A813B812617370788F4B2
:100620008B016F5F7F4F0E941210009761F09983DA
:1006300088831B830A832C813D81232B11F4FC01C9
:10064000108281E001C080E0DF91CF911F910F9176
:100650000895EF92FF920F931F93CF93DF9361154D
:10066000710511F480E01CC041155105C1F07B01FA
:10067000EC018C819D818A01080F191FB801CE0100
:100680000E940203882371F3288139818C819D8126
:10069000B701820F931F0E94E6101D830C8381E037
:1006A000DF91CF911F910F91FF90EF900895CF931D
:1006B000DF93EC01FB0144815581608171810E94CF
:1006C0002903811103C0CE010E94EE02CE01DF9109
:1006D000CF910895EF92FF920F931F93CF93DF93E3
:1006E000CDB7DEB764970FB6F894DEBF0FBECDBFAF
:1006F0007C01CB01BA018E010F5F1F4F22E044E065
:100700000E94000AFC0101900020E9F73197AF0137
:10071000481B590BBC01C7010E942903811103C06A
:10072000C7010E94EE02C70164960FB6F894DEBFBF
:100730000FBECDBFDF91CF911F910F91FF90EF9032
:100740000895EF92FF920F931F93CF93DF93CDB74E
:10075000DEB728970FB6F894DEBF0FBECDBF7C0181
:10076000CB014AE08E010F5F1F4FB8010E94C20A01
:10077000F80101900020E9F73197AF01401B510BC0
:10078000B801C7010E942903811103C0C7010E945B
:10079000EE02C70128960FB6F894DEBF0FBECDBF9C
:1007A000DF91CF911F910F91FF90EF900895CF931C
:1007B000DF93EC016115710561F0FB0101900020F0
:1007C000E9F73197AF01461B570B0E9429038111AE
:1007D00003C0CE010E94EE02CE01DF91CF910895B9
:1007E000EF92FF920F931F93CF93DF93EC017B0166
:1007F0008A01BA010E940203811104C0CE010E9445
:10080000EE0207C01D830C83B701888199810E9485
:10081000E610CE01DF91CF911F910F91FF90EF90E5
:100820000895EF92FF920F931F93CF93DF93CDB76D
:10083000DEB7A1970FB6F894DEBF0FBECDBF7C0127
:10084000CB01BA01F7011182108213821282158244
:1008500014828E010F5F1F4F22E044E00E94000AC5
:10086000009769F0FC0101900020E9F73197AF0192
:10087000481B590BBC01C7010E94F00303C0C7010C
:100880000E94EE02A1960FB6F894DEBF0FBECDBF58
:10089000DF91CF911F910F91FF90EF900895EF920C
:1008A000FF920F931F93CF93DF93CDB7DEB762977D
:1008B0000FB6F894DEBF0FBECDBF8C01CB01F8019F
:1008C0001182108213821282158214824AE09E01E4
:1008D0002F5F3F4F7901B9010E94C20AF7010190D1
:1008E0000020E9F73197AF014E195F09B701C80140
:1008F0000E94F00362960FB6F894DEBF0FBECDBF24
:10090000DF91CF911F910F91FF90EF900895CF93BA
:10091000DF93EC01FB018617970761F0608171811D
:100920006115710529F0448155810E94F00302C0D0
:100930000E94EE02CE01DF91CF9108951F920F9297
:100940000FB60F9211242F933F938F939F93AF93E2
:10095000BF938091F3019091F401A091F501B091C2
:10096000F6013091F20123E0230F2D3720F4019698
:10097000A11DB11D05C026E8230F0296A11DB11DC2
:100980002093F2018093F3019093F401A093F50179
:10099000B093F6018091F7019091F801A091F901CF
:1009A000B091FA010196A11DB11D8093F7019093BA
:1009B000F801A093F901B093FA01BF91AF919F9113
:1009C0008F913F912F910F900FBE0F901F90189510
:1009D0001F920F920FB60F9211242F933F934F93B4
:1009E0005F936F937F938F939F93AF93BF93EF9397
:1009F000FF938BEF91E00E94A001FF91EF91BF91D7
:100A0000AF919F918F917F916F915F914F913F91A6
:100A10002F910F900FBE0F901F9018951F920F925D
:100A20000FB60F9211242F938F939F93EF93FF9301
:100A3000E0910B02F0910C028081E0911102F091A3
:100A4000120282FD12C09081809114028F5F8F7319
:100A500020911502821751F0E0911402F0E0E55068
:100A6000FE4F958F8093140201C08081FF91EF911A
:100A70009F918F912F910F900FBE0F901F901895FF
:100A80001F920F920FB60F9211242F933F934F9303
:100A90005F936F937F938F939F93AF93BF93EF93E6
:100AA000FF93E091E001F091E101309709F451C02A
:100AB000968DA685B785858591FF04C09C91892375
:100AC00029F447C09C91892309F043C0A389B489C4
:100AD0009C918589809589238C9386899789019734
:100AE000F1F7608D718DA685B785558538E020E0DA
:100AF000CB010197F1F7822F90E095958795282FEC
:100B00004C91452309F02068315091F7868D81FD85
:100B100020958091DF0190E001968F7399273091A5
:100B2000DE01381749F0A091DF01B0E0A256BE4FB8
:100B30002C938093DF0103C0868D8160868F828D28
:100B4000938D0197F1F7A389B4899C918589892BAD
:100B50008C93FF91EF91BF91AF919F918F917F9176
:100B60006F915F914F913F912F910F900FBE0F901A
:100B70001F90189590E0FC01EE59FE4F2491FC0166
:100B8000E855FE4F3491FC01EC56FE4FE491EE2304
:100B900009F43CC0222339F1233091F038F421309C
:100BA000A9F0223001F584B58F7D12C0273091F075
:100BB0002830A1F02430B9F4809180008F7D03C0EB
:100BC000809180008F77809380000DC084B58F77EF
:100BD00084BD09C08091B0008F7703C08091B000C0
:100BE0008F7D8093B000F0E0EE0FFF1FE657FE4FC1
:100BF000A591B4919FB7F894611104C08C91309580
:100C0000382302C0EC913E2B3C939FBF0895CF93B5
:100C1000DF931092FE011092FD0188EE93E0A0E0B8
:100C2000B0E08093FF0190930002A0930102B09383
:100C300002022EE031E03093FC012093FB0125EC11
:100C400030E0309308022093070224EC30E0309328
:100C50000A022093090220EC30E030930C0220932A
:100C60000B0221EC30E030930E0220930D0222ECB7
:100C700030E03093100220930F0226EC30E03093E6
:100C80001202209311021092140210921502109277
:100C900016021092170210929B0210929A028093F1
:100CA0009C0290939D02A0939E02B0939F0280E2CB
:100CB00091E090939902809398021092AF02109263
:100CC000AE021092B1021092B0021092B3021092D2
:100CD000B2021092B5021092B4026091B6026E7F19
:100CE0006D7F6093B6026695617081E0682783E04E
:100CF0000E94BA05EBEAF1E02491E7E9F1E0849182
:100D0000882399F090E0880F991FFC01E058FE4F6E
:100D1000A591B491FC01E657FE4F859194918FB750
:100D2000F894EC91E22BEC938FBFEBEAF1E0E491C5
:100D3000E093A802E7E9F1E0E491F0E0EE0FFF1F95
:100D4000E657FE4F859194919093AA028093A90251
:100D5000EAEAF1E02491E6E9F1E084918823C1F028
:100D600090E0880F991FFC01E058FE4FC591D49187
:100D7000FC01E657FE4FA591B4919FB7F894888186
:100D8000E22FE0958E2388838C91E823EC939FBF1C
:100D90008091B60281FD04C061E082E00E94BA0544
:100DA00082E08093A402EAEAF1E0E491E093A502F4
:100DB000E6E9F1E0E491F0E0EE0FFF1FEA58FE4FA4
:100DC000859194919093A7028093A602DF91CF9191
:100DD0000895CF93DF93CDB7DEB7A4970FB6F894FD
:100DE000DEBF0FBECDBF789484B5826084BD84B56C
:100DF000816084BD85B5826085BD85B5816085BD16
:100E000080916E00816080936E00109281008091CD
:100E10008100826080938100809181008160809355
:100E20008100809180008160809380008091B1007A
:100E300084608093B1008091B00081608093B000A5
:100E400080917A00846080937A0080917A00826039
:100E500080937A0080917A00816080937A008091FB
:100E60007A00806880937A001092C100E0910B02B2
:100E7000F0910C0282E08083E0910702F091080279
:100E80001082E0910902F0910A028FEC80831092A7
:100E90001302E0910F02F091100286E08083E0914E
:100EA0000D02F0910E02808180618083E0910D023D
:100EB000F0910E02808188608083E0910D02F091B4
:100EC0000E02808180688083E0910D02F0910E0215
:100ED00080818F7D80831092B3021092B2021092B3
:100EE000B1021092B0021092AF021092AE028DE9E0
:100EF00091E09093B5028093B4029091A402963150
:100F000008F058C02DEB30E03093AF022093AE02D2
:100F10002BE931E03093B1022093B0022CE231E0B2
:100F20003093B3022093B20240916800983058F099
:100F300031E09E3008F430E021E0822F01C0880FBC
:100F40003A95EAF701C084E0842B809368009830DA
:100F500038F09E3040F0963148F020E030E008C094
:100F60002DE630E005C02BE630E002C02CE630E094
:100F70003093AC022093AB02983030F481E001C092
:100F8000880F9A95EAF70EC0292F30E09E3018F4AA
:100F90002850310902C02E50310981E001C0880F6C
:100FA0002A95EAF78093AD028091B4029091B50240
:100FB0000197F1F78091B2029091B302892B49F128
:100FC000E091E001F091E10122E0E839F20709F156
:100FD000309739F0A389B4899C91858980958923BC
:100FE0008C938091B6028E7F8093B6021092DF01BF
:100FF0001092DE0188E992E09093E1018093E00194
:10100000E091AB02F091AC0290818091AD02892B0E
:1010100080830E940A014B015C0128EEC22E23E06E
:10102000D22EE12CF12C0E940A01DC01CB0188199F
:101030009909AA09BB09883E9340A105B10598F317
:1010400081E0C81AD108E108F108E8EE8E0EE3E06D
:101050009E1EA11CB11CC114D104E104F10419F7B6
:1010600048E150E061E371E08BEF91E00E942F01D5
:101070000E94E10288EEC82E83E0D82EE12CF12CEC
:1010800094EF892E99249394A12CB12C2FB7F89426
:101090008091F3019091F401A091F501B091F601D6
:1010A0002FBF4091EE015091EF016091F0017091DE
:1010B000F101481759076A077B0708F082C12FB76B
:1010C000F8948091F3019091F401A091F501B09111
:1010D000F6012FBF8053984FAF4FBF4F8093EE0163
:1010E0009093EF01A093F001B093F1010E946B0A7D
:1010F00024E630E040E050E00E94B70D7093ED012F
:101100006093EC010E946B0A22E330E040E050E083
:101110000E94B70D7093EB016093EA010E946B0A85
:10112000A70196010E94B70D0E942B0D20E030E030
:1011300040E251E40E94510E6093E6017093E70192
:101140008093E8019093E9010E946B0AA501940144
:101150000E94B70D0E942B0D20E030E040E251E4E8
:101160000E94510E6093E2017093E3018093E401C9
:101170009093E50118A21F8E1AA219A21CA21BA20D
:1011800048E050E06AE471E0CE014F960E94F0031F
:101190006090EC017090ED011A8219821C821B8212
:1011A0001E821D82BE01615E7F4FCE0101960E94AC
:1011B0008704B301CE0101960E94A10363E571E0AB
:1011C0000E94D703BC01CE014F960E948704CE0136
:1011D00001960E94E9026090EA017090EB011A8288
:1011E00019821C821B821E821D82BE01615E7F4F9E
:1011F000CE0101960E948704B301CE0101960E94A0
:10120000A1036CE571E00E94D703BC01CE014F96AB
:101210000E948704CE0101960E94E9024090E601F7
:101220005090E7016090E8017090E9011A821982FC
:101230001C821B821E821D82BE01615E7F4FCE0119
:1012400001960E948704B301A201CE0101960E947B
:101250006A0365E671E00E94D703BC01CE014F9698
:101260000E948704CE0101960E94E9024090E201AB
:101270005090E3016090E4017090E5011A821982B8
:101280001C821B821E821D82BE01615E7F4FCE01C9
:1012900001960E948704B301A201CE0101960E942B
:1012A0006A036EE671E00E94D703BC01CE014F963F
:1012B0000E948704CE0101960E94E9024BA15CA125
:1012C0006F8D78A188E992E00E942F014091E201A0
:1012D0005091E3016091E4017091E501CE01019626
:1012E0000E9411044091E6015091E7016091E801EC
:1012F0007091E901CE0107960E9411046091EA0104
:101300007091EB01CE010D960E944F046091EC01AB
:101310007091ED01CE0143960E944F041A8E198EF2
:101320001C8E1B8E1E8E1D8E45E150E060E771E025
:10133000CE0149960E94F003BE016D5E7F4FCE0143
:1013400049960E94570366E871E00E94D703BE01E8
:10135000635F7F4F0E9457036EE871E00E94D703DE
:10136000BE01695F7F4F0E94570366E971E00E94EA
:10137000D703BE016F5F7F4F0E945703FC0144817A
:101380005581608171818BEF91E00E942F010E9455
:10139000E102CE0149960E94E902CE0143960E94E5
:1013A000E902CE010D960E94E902CE0107960E9445
:1013B000E902CE0101960E94E902CE014F960E94F9
:1013C000E9020E94310262CE80E291E0909399029C
:1013D000809398028091E0019091E10188599240B8
:1013E00071F4E091AB02F091AC0290818091AD027A
:1013F0008095892380831092E1011092E001089585
:10140000EF920F931F93CF93DF93E80147FD02C044
:1014100034E001C034E1042E000C550B57FF03C02B
:10142000519541955109E32E022F242FAE010E94C0
:10143000E70ACE01DF91CF911F910F91EF900895B0
:101440008F929F92AF92BF92CF92DF92EF92FF92D4
:10145000CF93DF93EC01688179818A819B8161154B
:1014600071058105910521F464E279ED8BE597E042
:101470002DE133EF41E050E00E94B70D49015A01E0
:101480009B01AC01A7EAB1E40E94D60D6B017C017F
:10149000ACEEB4EFA50194010E94E40DDC01CB0198
:1014A0008C0D9D1DAE1DBF1DB7FF03C00197A10987
:1014B000B04888839983AA83BB83BC01CD019F7701
:1014C000DF91CF91FF90EF90DF90CF90BF90AF90E2
:1014D0009F908F9008958F929F92AF92BF92CF92DC
:1014E000DF92EF92FF926091000170910101809173
:1014F000020190910301611571058105910521F4A7
:1015000064E279ED8BE597E02DE133EF41E050E0C7
:101510000E94B70D49015A019B01AC01A7EAB1E451
:101520000E94D60D6B017C01ACEEB4EFA5019401D5
:101530000E94E40DDC01CB018C0D9D1DAE1DBF1D75
:10154000B7FF03C00197A109B048809300019093B1
:101550000101A0930201B0930301BC01CD019F776B
:10156000FF90EF90DF90CF90BF90AF909F908F90C3
:10157000089560930001709301018093020190939C
:1015800003010895BB274A3031F4992322F4BDE2C8
:10159000909581959F4F0C94CE0ABB27FB01552750
:1015A000AA27880F991FAA1FA41710F0A41B8395C0
:1015B0005051B9F7A05DAA3308F0A95DA193009737
:1015C00079F7B111B1931192CB010C94190DA9E0E7
:1015D000B0E0EDEEFAE00C94EF0D6A01122FB02EA0
:1015E0002BE3201720F0FF24F394F00E02C02CE32D
:1015F000F22E0F2D27E0AE014F5F5F4F0E94410C8E
:10160000BC014981842F8970813031F0E1FC06C032
:10161000E0FE06C090E205C09DE203C09BE201C06F
:1016200090E05E2D507143FF3CC0911102C083E0F9
:1016300001C084E0811718F4212F281B01C020E08D
:1016400051110BC0F601822F30E2882319F031933B
:101650008150FBCFC20ED11C20E0992329F0D60186
:101660009C93F60131966F01C6010396E2FE0AC013
:101670003EE4D6013C9341E411964C9311971296A7
:101680003C9306C03EE6F601308341E64183328357
:10169000FC01322F40E2332309F442C04193315020
:1016A000FACF42FF44C0911102C083E001C084E040
:1016B000811718F4212F281B01C020E051110BC005
:1016C000F601822F30E2882319F031938150FBCF4D
:1016D000C20ED11C20E0992329F0D6019C93F6017B
:1016E00031966F01C6010396E2FE0BC039E4D601C4
:1016F0003C933EE411963C93119736E412963C934A
:1017000007C039E6F60130833EE6318336E63283A0
:10171000FC01322F40E2332319F041933150FBCFCB
:10172000FC01E20FF11D10828EEF9FEFA6C021E0B9
:1017300030E0911102C020E030E0161617061CF4CC
:10174000FB01319602C0E1E0F0E02E0F3F1FBB200D
:1017500021F0EB2DF0E0319602C0E0E0F0E02E0F3A
:101760003F1FE12FF0E02E173F071CF4121B212F23
:1017700001C020E08E2D887159F4F601822F30E2ED
:10178000882319F031938150FBCFC20ED11C20E089
:10179000992329F0D6019C93F60131966F015111DE
:1017A0000BC0F601822F90E3882319F091938150AA
:1017B000FBCFC20ED11C20E00F2D060F9A81342FD3
:1017C000307144FF03C0913309F40150101624F422
:1017D000093018F008E001C001E0AB0177FF02C05A
:1017E00040E050E0FB01E41BF50BA1E0B0E0AC0FE2
:1017F000BD1FEA0FFB1F8EE2A82E4B01801A910835
:101800000B2D10E01195019511094F3FBFEF5B07BC
:1018100021F4D601AC9211966D01641775072CF076
:101820008416950614F4818101C080E3415051096A
:101830003196D60111967D014017510724F0D6014B
:101840008C936701E2CF6417750739F4963320F45F
:10185000953319F4311101C081E3F6018083F7015A
:10186000822F90E2882319F091938150FBCFF701EA
:10187000E20FF11D108280E090E02996ECE00C94DC
:101880000B0E283008F027E03327DA01990F311DBD
:1018900087FD916000966105710539F432602E5F15
:1018A0003D9330E32A95E1F708959F3F30F080386B
:1018B0007105610509F03C5F3C5F3D93913008F094
:1018C0008068911DDF93CF931F930F93FF92EF9248
:1018D000192F987F9695E92F96959695E90FFF27F2
:1018E000EE53FF4F99273327EE24FF24A701E7018A
:1018F00005900894079428F4360FE71EF81E491F38
:10190000511D660F771F881F991F0694A1F7059038
:10191000079428F4E70EF81E491F561FC11D770FC4
:10192000881F991F661F0694A1F70590079428F455
:10193000F80E491F561FC71FD11D880F991F661F1C
:10194000771F0694A1F70590079420F4490F561FBE
:10195000C71FD81F990F661F771F881F0694A9F706
:1019600084911095177041F0D695C7955795479576
:10197000F794E7941A95C1F7E8E6F0E068941590BB
:10198000159135916591959105907FE27395E118D8
:10199000F10A430B560BC90BD009C0F7E10CF11E3D
:1019A000431F561FC91FD01D7EF4703311F48A9552
:1019B000E6CFE894015030F0080F0AF40027021730
:1019C00008F4202F2395022F7A3328F079E37D93B2
:1019D0002A95E9F710C07D932A9589F60694979584
:1019E0006795379517951794E118F10A430B560B35
:1019F000C90BD00998F023957E9173957A3308F03E
:101A000070E37C932013B8F77E9170617D9330F082
:101A1000839571E37D9370E32A95E1F71124EF90AC
:101A2000FF900F911F91CF91DF91992787FD90959E
:101A30000895DC01FC01672F71917723E1F732975C
:101A400004C07C916D9370836291AE17BF07C8F399
:101A50000895E89409C097FB3EF4909580957095A1
:101A600061957F4F8F4F9F4F9923A9F0F92F96E9EA
:101A7000BB279395F695879577956795B795F1115F
:101A8000F8CFFAF4BB0F11F460FF1BC06F5F7F4FFC
:101A90008F4F9F4F16C0882311F096E911C077230E
:101AA00021F09EE8872F762F05C0662371F096E817
:101AB000862F70E060E02AF09A95660F771F881FE6
:101AC000DAF7880F9695879597F9089597F99F67A4
:101AD00080E870E060E008959FEF80EC08950024B6
:101AE0000A941616170618060906089500240A9483
:101AF00012161306140605060895092E0394000C09
:101B000011F4882352F0BB0F40F4BF2B11F460FF97
:101B100004C06F5F7F4F8F4F9F4F089557FD9058C0
:101B2000440F551F59F05F3F71F04795880F97FBA1
:101B3000991F61F09F3F79F087950895121613065B
:101B40001406551FF2CF4695F1DF08C0161617068A
:101B50001806991FF1CF86957105610508940895BF
:101B6000E894BB2766277727CB0197F90895052EC0
:101B700097FB1EF400940E94CE0D57FD07D00E94E3
:101B8000200E07FC03D04EF40C94CE0D50954095DA
:101B9000309521953F4F4F4F5F4F08959095809519
:101BA000709561957F4F8F4F9F4F08950E94420E11
:101BB000A59F900DB49F900DA49F800D911D1124A1
:101BC0000895B7FF0C94D60D0E94D60D821B930B7F
:101BD00008952F923F924F925F926F927F928F92D1
:101BE0009F92AF92BF92CF92DF92EF92FF920F93AC
:101BF0001F93CF93DF93CDB7DEB7CA1BDB0B0FB6B6
:101C0000F894DEBF0FBECDBF09942A883988488872
:101C10005F846E847D848C849B84AA84B984C88408
:101C2000DF80EE80FD800C811B81AA81B981CE0FFF
:101C3000D11D0FB6F894DEBF0FBECDBFED010895E4
:101C4000A1E21A2EAA1BBB1BFD010DC0AA1FBB1FC0
:101C5000EE1FFF1FA217B307E407F50720F0A21B32
:101C6000B30BE40BF50B661F771F881F991F1A949F
:101C700069F760957095809590959B01AC01BD01C9
:101C8000CF010895A29FB001B39FC001A39F700D23
:101C9000811D1124911DB29F700D811D1124911D74
:101CA00008950E94650E0C947D0D0E94760D58F0EB
:101CB0000E946F0D40F029F45F3F29F00C94660DEF
:101CC00051110C94B10D0C946C0D0E948E0D68F3A3
:101CD0009923B1F3552391F3951B550BBB27AA27E5
:101CE00062177307840738F09F5F5F4F220F331F1F
:101CF000441FAA1FA9F335D00E2E3AF0E0E832D0E7
:101D000091505040E695001CCAF72BD0FE2F29D0E9
:101D1000660F771F881FBB1F261737074807AB07BB
:101D2000B0E809F0BB0B802DBF01FF2793585F4F30
:101D30003AF09E3F510578F00C94660D0C94B10D6D
:101D40005F3FE4F3983ED4F3869577956795B79512
:101D5000F7959F5FC9F7880F911D9695879597F91D
:101D60000895E1E0660F771F881FBB1F6217730796
:101D70008407BA0720F0621B730B840BBA0BEE1FAB
:101D800088F7E095089597FB072E16F4009407D086
:101D900077FD09D00E94D70E07FC05D03EF4909540
:101DA00081959F4F0895709561957F4F0895AA1B67
:101DB000BB1B51E107C0AA1FBB1FA617B70710F036
:101DC000A61BB70B881F991F5A95A9F78095909568
:101DD000BC01CD010895EE0FFF1F0590F491E02D99
:101DE00009940F931F93CF93DF938230910510F4E2
:101DF00082E090E0E091B902F091BA0220E030E098
:101E0000A0E0B0E0309719F1408151810281138147
:101E100048175907C8F08417950769F4109731F0EF
:101E200012960C93129713961C9327C00093B90235
:101E30001093BA0222C02115310519F04217530739
:101E400018F49A01BD01EF01DF01F801DBCF211584
:101E50003105F9F0281B390B2430310580F48A81D3
:101E60009B816115710521F0FB019383828304C07E
:101E70009093BA028093B902FE01329644C0FE01EB
:101E8000E20FF31F81939193225031093983288304
:101E90003AC02091B7023091B802232B41F420912F
:101EA0000601309107013093B8022093B7022091C8
:101EB0000401309105012115310541F42DB73EB7DC
:101EC0004091080150910901241B350BE091B702A4
:101ED000F091B802E217F307A0F42E1B3F0B28176E
:101EE000390778F0AC014E5F5F4F2417350748F093
:101EF0004E0F5F1F5093B8024093B70281939193A6
:101F000002C0E0E0F0E0CF01DF91CF911F910F918F
:101F10000895CF93DF93009709F481C0FC013297B5
:101F200013821282A091B902B091BA02109781F483
:101F300020813181820F931F2091B7023091B80226
:101F40002817390751F5F093B802E093B70267C03C
:101F5000ED0120E030E0CE17DF0740F44A815B81DD
:101F60009E0141155105F1F0EA01F5CFD383C283FB
:101F700040815181840F951FC817D90759F4888172
:101F80009981840F951F0296918380838A819B811A
:101F9000938382832115310529F4F093BA02E093EB
:101FA000B9023DC0E901FB83EA8349915991C40F0D
:101FB000D51FEC17FD0761F480819181840F951F77
:101FC0000296E90199838883828193819B838A8326
:101FD000E0E0F0E012968D919C911397009719F034
:101FE000FD01DC01F7CF8D919C9111979D012E5F32
:101FF0003F4F820F931F2091B7023091B8022817EC
:10200000390769F4309729F41092BA021092B90294
:1020100002C013821282B093B802A093B702DF917C
:10202000CF910895A0E0B0E0E8E1F0E10C94ED0D6F
:10203000EC01009721F4CB010E94F10EB4C0FC0129
:10204000E60FF71F9C0122503109E217F30708F44D
:10205000A8C0D9010D911C91119706171707B0F070
:102060000530110508F49BC0C8010497861797072F
:1020700008F495C002501109061B170B0193119328
:102080006D937C93CF010E94890F89C05B01A01AD8
:10209000B10A4C01800E911EA091B902B091BA0212
:1020A000612C712CE12CF12C109709F446C08D9114
:1020B0009C911197A815B905B1F56C0142E0C40EC9
:1020C000D11CCA14DB0478F14C018A189B08640106
:1020D00042E0C40ED11C1296BC9012971396AC919C
:1020E000B5E0CB16D10440F0B282A3839182808206
:1020F000D9016D937C9309C00E5F1F4F800F911F14
:10210000F90191838083EB2DFA2FE114F10431F072
:10211000D7011396FC93EE93129741C0F093BA0245
:10212000E093B9023CC06816790608F43C017D01D1
:1021300012960D90BC91A02DB7CF8091B7029091CF
:10214000B80288169906E1F466167706C8F48091FD
:10215000040190910501009741F48DB79EB740911D
:10216000080150910901841B950BE817F907C8F481
:10217000F093B802E093B702F901718360830FC056
:10218000CB010E94F10E7C01009759F0A801BE011D
:102190000E94DD10CE010E94890FC70104C0CE014C
:1021A00002C080E090E0CDB7DEB7EEE00C94090EFF
:1021B00081E090E0F8940C94ED10FB01DC0102C08A
:1021C00001900D9241505040D8F70895FB01DC0179
:1021D00001900D920020E1F7089510E0CFEDD0E0DE
:1021E00004C0FE010E94EB0E2196C03ED107C9F744
:0421F000F894FFCF91
:1021F400010000000000BB02800000000000C201DA
:102204002F0159010F028A0168017C0100000000BE
:1022140054022F01DE025302A402BC023B020D0A47
:1022240000496E69636961646F20636F72726563EC
:1022340074616D656E74652E2E007B227661723139
:10224400223A002C2276617232223A002C227661E4
:102254007233223A002C2276617234223A007D00D5
:102264004461746F7320656E766961646F733A209C
:10227400566172313D002C20566172323D002C2093
:0E228400566172333D002C20566172343D00CD
:00000001FF
